{
  "_format": "hh-sol-artifact-1",
  "contractName": "Token",
  "sourceName": "contracts/Token.sol",
  "abi": [
    {
      "inputs": [],
      "stateMutability": "nonpayable",
      "type": "constructor"
    },
    {
      "anonymous": false,
      "inputs": [
        {
          "indexed": true,
          "internalType": "address",
          "name": "_depositor",
          "type": "address"
        },
        {
          "indexed": true,
          "internalType": "address",
          "name": "_receiver",
          "type": "address"
        },
        {
          "indexed": false,
          "internalType": "uint256",
          "name": "_amount",
          "type": "uint256"
        }
      ],
      "name": "Deposit",
      "type": "event"
    },
    {
      "anonymous": false,
      "inputs": [
        {
          "indexed": true,
          "internalType": "address",
          "name": "_from",
          "type": "address"
        },
        {
          "indexed": true,
          "internalType": "address",
          "name": "_to",
          "type": "address"
        },
        {
          "indexed": false,
          "internalType": "uint256",
          "name": "_value",
          "type": "uint256"
        }
      ],
      "name": "Transfer",
      "type": "event"
    },
    {
      "anonymous": false,
      "inputs": [
        {
          "indexed": true,
          "internalType": "address",
          "name": "_sender",
          "type": "address"
        },
        {
          "indexed": true,
          "internalType": "address",
          "name": "_withdrawer",
          "type": "address"
        },
        {
          "indexed": false,
          "internalType": "uint256",
          "name": "_amount",
          "type": "uint256"
        }
      ],
      "name": "Withdrawal",
      "type": "event"
    },
    {
      "inputs": [
        {
          "internalType": "address",
          "name": "account",
          "type": "address"
        }
      ],
      "name": "balanceOf",
      "outputs": [
        {
          "internalType": "uint256",
          "name": "",
          "type": "uint256"
        }
      ],
      "stateMutability": "view",
      "type": "function"
    },
    {
      "inputs": [
        {
          "internalType": "address",
          "name": "depositor",
          "type": "address"
        },
        {
          "internalType": "uint256",
          "name": "amount",
          "type": "uint256"
        }
      ],
      "name": "calculateInterest",
      "outputs": [
        {
          "internalType": "uint256",
          "name": "",
          "type": "uint256"
        }
      ],
      "stateMutability": "view",
      "type": "function"
    },
    {
      "inputs": [
        {
          "internalType": "uint256",
          "name": "amount",
          "type": "uint256"
        }
      ],
      "name": "deposit",
      "outputs": [],
      "stateMutability": "nonpayable",
      "type": "function"
    },
    {
      "inputs": [
        {
          "internalType": "address",
          "name": "",
          "type": "address"
        }
      ],
      "name": "depositTimestamp",
      "outputs": [
        {
          "internalType": "uint256",
          "name": "",
          "type": "uint256"
        }
      ],
      "stateMutability": "view",
      "type": "function"
    },
    {
      "inputs": [],
      "name": "name",
      "outputs": [
        {
          "internalType": "string",
          "name": "",
          "type": "string"
        }
      ],
      "stateMutability": "view",
      "type": "function"
    },
    {
      "inputs": [],
      "name": "owner",
      "outputs": [
        {
          "internalType": "address",
          "name": "",
          "type": "address"
        }
      ],
      "stateMutability": "view",
      "type": "function"
    },
    {
      "inputs": [],
      "name": "symbol",
      "outputs": [
        {
          "internalType": "string",
          "name": "",
          "type": "string"
        }
      ],
      "stateMutability": "view",
      "type": "function"
    },
    {
      "inputs": [],
      "name": "totalSupply",
      "outputs": [
        {
          "internalType": "uint256",
          "name": "",
          "type": "uint256"
        }
      ],
      "stateMutability": "view",
      "type": "function"
    },
    {
      "inputs": [
        {
          "internalType": "address",
          "name": "to",
          "type": "address"
        },
        {
          "internalType": "uint256",
          "name": "amount",
          "type": "uint256"
        }
      ],
      "name": "transfer",
      "outputs": [],
      "stateMutability": "nonpayable",
      "type": "function"
    },
    {
      "inputs": [],
      "name": "withdraw",
      "outputs": [],
      "stateMutability": "nonpayable",
      "type": "function"
    }
  ],
  "bytecode": "0x60806040526040518060400160405280601081526020017f4d79204861726468617420546f6b656e00000000000000000000000000000000815250600090816200004a9190620003ae565b506040518060400160405280600381526020017f4d4854000000000000000000000000000000000000000000000000000000000081525060019081620000919190620003ae565b50620f4240600255348015620000a657600080fd5b50600254600460003373ffffffffffffffffffffffffffffffffffffffff1673ffffffffffffffffffffffffffffffffffffffff1681526020019081526020016000208190555033600360006101000a81548173ffffffffffffffffffffffffffffffffffffffff021916908373ffffffffffffffffffffffffffffffffffffffff16021790555062000495565b600081519050919050565b7f4e487b7100000000000000000000000000000000000000000000000000000000600052604160045260246000fd5b7f4e487b7100000000000000000000000000000000000000000000000000000000600052602260045260246000fd5b60006002820490506001821680620001b657607f821691505b602082108103620001cc57620001cb6200016e565b5b50919050565b60008190508160005260206000209050919050565b60006020601f8301049050919050565b600082821b905092915050565b600060088302620002367fffffffffffffffffffffffffffffffffffffffffffffffffffffffffffffffff82620001f7565b620002428683620001f7565b95508019841693508086168417925050509392505050565b6000819050919050565b6000819050919050565b60006200028f6200028962000283846200025a565b62000264565b6200025a565b9050919050565b6000819050919050565b620002ab836200026e565b620002c3620002ba8262000296565b84845462000204565b825550505050565b600090565b620002da620002cb565b620002e7818484620002a0565b505050565b5b818110156200030f5762000303600082620002d0565b600181019050620002ed565b5050565b601f8211156200035e576200032881620001d2565b6200033384620001e7565b8101602085101562000343578190505b6200035b6200035285620001e7565b830182620002ec565b50505b505050565b600082821c905092915050565b6000620003836000198460080262000363565b1980831691505092915050565b60006200039e838362000370565b9150826002028217905092915050565b620003b98262000134565b67ffffffffffffffff811115620003d557620003d46200013f565b5b620003e182546200019d565b620003ee82828562000313565b600060209050601f83116001811462000426576000841562000411578287015190505b6200041d858262000390565b8655506200048d565b601f1984166200043686620001d2565b60005b82811015620004605784890151825560018201915060208501945060208101905062000439565b868310156200048057848901516200047c601f89168262000370565b8355505b6001600288020188555050505b505050505050565b610ef080620004a56000396000f3fe608060405234801561001057600080fd5b506004361061009e5760003560e01c80638da5cb5b116100665780638da5cb5b1461014957806395d89b4114610167578063a9059cbb14610185578063b6b55f25146101a1578063d7dc6203146101bd5761009e565b806306fdde03146100a357806318160ddd146100c15780633ccfd60b146100df57806346b00d04146100e957806370a0823114610119575b600080fd5b6100ab6101ed565b6040516100b89190610a34565b60405180910390f35b6100c961027b565b6040516100d69190610a6f565b60405180910390f35b6100e7610281565b005b61010360048036038101906100fe9190610aed565b610481565b6040516101109190610a6f565b60405180910390f35b610133600480360381019061012e9190610aed565b610499565b6040516101409190610a6f565b60405180910390f35b6101516104e2565b60405161015e9190610b29565b60405180910390f35b61016f610508565b60405161017c9190610a34565b60405180910390f35b61019f600480360381019061019a9190610b70565b610596565b005b6101bb60048036038101906101b69190610bb0565b61072d565b005b6101d760048036038101906101d29190610b70565b61090e565b6040516101e49190610a6f565b60405180910390f35b600080546101fa90610c0c565b80601f016020809104026020016040519081016040528092919081815260200182805461022690610c0c565b80156102735780601f1061024857610100808354040283529160200191610273565b820191906000526020600020905b81548152906001019060200180831161025657829003601f168201915b505050505081565b60025481565b6000600460003373ffffffffffffffffffffffffffffffffffffffff1673ffffffffffffffffffffffffffffffffffffffff1681526020019081526020016000205411610303576040517f08c379a00000000000000000000000000000000000000000000000000000000081526004016102fa90610c89565b60405180910390fd5b6000600560003373ffffffffffffffffffffffffffffffffffffffff1673ffffffffffffffffffffffffffffffffffffffff1681526020019081526020016000205490506000811161038a576040517f08c379a000000000000000000000000000000000000000000000000000000000815260040161038190610cf5565b60405180910390fd5b6000610396338361090e565b9050600081836103a69190610d44565b905080600460003373ffffffffffffffffffffffffffffffffffffffff1673ffffffffffffffffffffffffffffffffffffffff16815260200190815260200160002060008282546103f79190610d44565b9250508190555080600260008282546104109190610d78565b925050819055503373ffffffffffffffffffffffffffffffffffffffff163073ffffffffffffffffffffffffffffffffffffffff167f2717ead6b9200dd235aad468c9809ea400fe33ac69b5bfaa6d3e90fc922b6398836040516104749190610a6f565b60405180910390a3505050565b60066020528060005260406000206000915090505481565b6000600460008373ffffffffffffffffffffffffffffffffffffffff1673ffffffffffffffffffffffffffffffffffffffff168152602001908152602001600020549050919050565b600360009054906101000a900473ffffffffffffffffffffffffffffffffffffffff1681565b6001805461051590610c0c565b80601f016020809104026020016040519081016040528092919081815260200182805461054190610c0c565b801561058e5780601f106105635761010080835404028352916020019161058e565b820191906000526020600020905b81548152906001019060200180831161057157829003601f168201915b505050505081565b80600460003373ffffffffffffffffffffffffffffffffffffffff1673ffffffffffffffffffffffffffffffffffffffff168152602001908152602001600020541015610618576040517f08c379a000000000000000000000000000000000000000000000000000000000815260040161060f90610df8565b60405180910390fd5b80600460003373ffffffffffffffffffffffffffffffffffffffff1673ffffffffffffffffffffffffffffffffffffffff16815260200190815260200160002060008282546106679190610d78565b9250508190555080600460008473ffffffffffffffffffffffffffffffffffffffff1673ffffffffffffffffffffffffffffffffffffffff16815260200190815260200160002060008282546106bd9190610d44565b925050819055508173ffffffffffffffffffffffffffffffffffffffff163373ffffffffffffffffffffffffffffffffffffffff167fddf252ad1be2c89b69c2b068fc378daa952ba7f163c4a11628f55a4df523b3ef836040516107219190610a6f565b60405180910390a35050565b80600460003373ffffffffffffffffffffffffffffffffffffffff1673ffffffffffffffffffffffffffffffffffffffff1681526020019081526020016000205410156107af576040517f08c379a00000000000000000000000000000000000000000000000000000000081526004016107a690610df8565b60405180910390fd5b42600660003373ffffffffffffffffffffffffffffffffffffffff1673ffffffffffffffffffffffffffffffffffffffff1681526020019081526020016000208190555080600560003373ffffffffffffffffffffffffffffffffffffffff1673ffffffffffffffffffffffffffffffffffffffff1681526020019081526020016000208190555080600460003373ffffffffffffffffffffffffffffffffffffffff1673ffffffffffffffffffffffffffffffffffffffff16815260200190815260200160002060008282546108869190610d78565b92505081905550806002600082825461089f9190610d44565b925050819055503073ffffffffffffffffffffffffffffffffffffffff163373ffffffffffffffffffffffffffffffffffffffff167f5548c837ab068cf56a2c2479df0882a4922fd203edb7517321831d95078c5f62836040516109039190610a6f565b60405180910390a350565b600080600660008573ffffffffffffffffffffffffffffffffffffffff1673ffffffffffffffffffffffffffffffffffffffff168152602001908152602001600020544261095c9190610d78565b9050600061012c8261096e9190610e47565b905060006064826002876109829190610e78565b61098c9190610e78565b6109969190610e47565b905080935050505092915050565b600081519050919050565b600082825260208201905092915050565b60005b838110156109de5780820151818401526020810190506109c3565b60008484015250505050565b6000601f19601f8301169050919050565b6000610a06826109a4565b610a1081856109af565b9350610a208185602086016109c0565b610a29816109ea565b840191505092915050565b60006020820190508181036000830152610a4e81846109fb565b905092915050565b6000819050919050565b610a6981610a56565b82525050565b6000602082019050610a846000830184610a60565b92915050565b600080fd5b600073ffffffffffffffffffffffffffffffffffffffff82169050919050565b6000610aba82610a8f565b9050919050565b610aca81610aaf565b8114610ad557600080fd5b50565b600081359050610ae781610ac1565b92915050565b600060208284031215610b0357610b02610a8a565b5b6000610b1184828501610ad8565b91505092915050565b610b2381610aaf565b82525050565b6000602082019050610b3e6000830184610b1a565b92915050565b610b4d81610a56565b8114610b5857600080fd5b50565b600081359050610b6a81610b44565b92915050565b60008060408385031215610b8757610b86610a8a565b5b6000610b9585828601610ad8565b9250506020610ba685828601610b5b565b9150509250929050565b600060208284031215610bc657610bc5610a8a565b5b6000610bd484828501610b5b565b91505092915050565b7f4e487b7100000000000000000000000000000000000000000000000000000000600052602260045260246000fd5b60006002820490506001821680610c2457607f821691505b602082108103610c3757610c36610bdd565b5b50919050565b7f4e6f742061206465706f7369746f720000000000000000000000000000000000600082015250565b6000610c73600f836109af565b9150610c7e82610c3d565b602082019050919050565b60006020820190508181036000830152610ca281610c66565b9050919050565b7f4e6f20746f6b656e7320746f2077697468647261770000000000000000000000600082015250565b6000610cdf6015836109af565b9150610cea82610ca9565b602082019050919050565b60006020820190508181036000830152610d0e81610cd2565b9050919050565b7f4e487b7100000000000000000000000000000000000000000000000000000000600052601160045260246000fd5b6000610d4f82610a56565b9150610d5a83610a56565b9250828201905080821115610d7257610d71610d15565b5b92915050565b6000610d8382610a56565b9150610d8e83610a56565b9250828203905081811115610da657610da5610d15565b5b92915050565b7f4e6f7420656e6f75676820746f6b656e73000000000000000000000000000000600082015250565b6000610de26011836109af565b9150610ded82610dac565b602082019050919050565b60006020820190508181036000830152610e1181610dd5565b9050919050565b7f4e487b7100000000000000000000000000000000000000000000000000000000600052601260045260246000fd5b6000610e5282610a56565b9150610e5d83610a56565b925082610e6d57610e6c610e18565b5b828204905092915050565b6000610e8382610a56565b9150610e8e83610a56565b9250828202610e9c81610a56565b91508282048414831517610eb357610eb2610d15565b5b509291505056fea2646970667358221220c6e5623bbfe6ca50bc289a762a9e1a5648beca2ccce368aa8473f8bfbb013e9064736f6c63430008180033",
  "linkReferences": {},
  "deployedLinkReferences": {}
}